:0600000002004B02090F93
:03000B00020A18CE
:030013000209627D
:01001B0032B2
:030023000208C30D
:01002B0032A2
:01003300329A
:03003B000209B502
:030043000208842C
:03004600020A09A2
:02004900E4735E
:0D004B0075812D120A14E582600302004643
:100058007913E94400601B7A01900E8678B575A083
:1000680000E493F2A308B8000205A0D9F4DAF27507
:02007800A0FFE7
:06007A00E478FFF6D8FD5A
:100080007800E84400600A799475A000E4F309D888
:10009000FC7821E84400600C7901900094E4F0A31E
:0400A000D8FCD9FAB5
:0300A400751600CE
:0600A70075170975180A27
:0E00AD007808E4F608F608F608F6780C7600F7
:0200BB00C20081
:0300BD00020046F8
:1000C00012081612084012082F75DD0075D300754E
:1000D000D5002275D30074FC55D24402F5D29000AD
:1000E000B5E4F022A2DE227E007F009000B5E06041
:1000F000200EBE00010F900005C007C006120B863F
:10010000D006D007C3EE9450EF94C340DE75820052
:10011000227F00BF080050278F057E0074402DFD10
:10012000E43EFEED240AFDEE3400FEEF24B6F58237
:10013000E43400F583E0FC8D828E83F00F80D4756B
:10014000D3089000B57401F053D2FC75820122AF40
:1001500082BF880040088F06EE2478FE8042BF8070
:100160000040239000B6E0FD8F04EC2480F5F005FC
:10017000F07401800225E0D5F0FBFC42059000B64A
:10018000EDF07E00801AEF900D3E93FE7003F58235
:1001900022EE30E70B9000B6E04402FFF053067FFA
:1001A0009000B8E0FFB50602805C9000B9E0FFB5B2
:1001B000060280529000BAE0FFB506028048900027
:1001C000BBE0FFB50602803E9000BCE0FFB5060232
:1001D00080349000BDE0FFB50602802A7F027D02D8
:1001E000ED24B6FBE43400FC8B828C83E070088B3A
:1001F000828C83EEF080080D8D07BD080040E1BFC2
:100200000804758200221200E775820122AF82BFC6
:10021000880040088F06EE2478FE8043BF800040AF
:10022000249000B6E0FD8F04EC2480F5F005F07416
:1002300001800225E0D5F0FBF4FC52059000B6EDFC
:10024000F07E00801AEF900D3E93FE7003F582223F
:10025000EE30E70B9000B6E054FDFFF053067F7FD1
:1002600002EE6016EF24B6FCE43400FD8C828D8330
:10027000E0B506068C828D83E4F00FBF080040E1F4
:100280001200E7758201227F00BF0800500FEF24A3
:10029000B6F582E43400F583E4F00F80EC0200E769
:1002A000AF82C00712014FAE82D0078F82C0061204
:0E02B000020DD0068E822290000AE0F5822216
:1002BE00AFDBBF080280030206B2900007E0FE7FAC
:1002CE0000900006E0FD7C004FF510EC4EF5117F1E
:1002DE0000900001E0F5128F16900000E0FE5460D1
:1002EE006027900000E0FE5306607D00BE2005BD35
:1002FE000002800BBE400DBD000A7FFF0206B47FD8
:10030E00FF0206B47FFF0206B4E51224F450030286
:10031E0006AEE512240B83F582E512241083F583D5
:10032E00E47390BEAE7EAE8D48AE9AB5B4B40604FC
:10033E0006050604030604040606900003E0FEBE4E
:10034E0001028013BE02028023BE03028033BE224E
:10035E000302040102041F7514BE75150D900DD015
:10036E00E493FD740193FE8D070204217514D2757A
:10037E00150D900E40E493FD740193FE8D0702045B
:10038E0021900002E0701475144275150E900E4601
:10039E00E493FD740193FE8D078078900002E0FED9
:1003AE00BE011475147675150E900E84E493FD74CB
:1003BE000193FE8D07805C900002E0FEBE02147574
:1003CE00145E75150E900E74E493FD740193FE8DFC
:1003DE00078040900002E0FEBE03147514487515A8
:1003EE000E900E5CE493FD740193FE8D0780247FC6
:1003FE00FF8020900002E070147514FD75150D90AD
:10040E000DFBE493FD740193FE8D0780067FFF8044
:10041E00027FFFBFFF030206B48F057E00C3ED957A
:10042E0010EE951150048D108E11AD10AE11C3ED5E
:10043E009408EE940040067B087C008004AB10AC60
:10044E00118B077C00C3EC9F50198C027B00EC25AE
:10045E0014F582E43515F583E493F98A828B83F0E3
:10046E000C80E28F037C00EDC39BFDEE9CFE8D1095
:10047E008E11EF2514F514E43515F5150206B4901A
:10048E000002E0FE8E107511000206B4900000E529
:10049E0013F0AD10AE11C3ED9401EE9400500302B3
:1004AE0006B47F010206B4900002E0F5130206B412
:1004BE00900000E0541F702F900003E0FD7E00902E
:1004CE000002E0FC7B004206EB4205BE0114BD00BB
:1004DE0011900DD9E493FE30E5030206B47FFF02BE
:1004EE0006B47FFF0206B4900000E0FE53061F7DA7
:1004FE0000BE0277BD0074900004E0FEBE010280D3
:10050E005FBE02028049BE03028033BE0402801D1C
:10051E00BE81028040BE8202802ABE83028014BE4B
:10052E00844474BC55DE4402F5DE0206B453DE7319
:10053E000206B474BC55D64402F5D60206B453D6A0
:10054E00730206B474BC55D44402F5D40206B453F7
:10055E00D4730206B474BC55D24402F5D20206B46A
:10056E0053D2730206B47FFF0206B47FFF0206B4B5
:10057E00900000E0541F702F900003E0FD7E00906D
:10058E000002E0FC7B004206EB4205BE0114BD00FA
:10059E0011900DD9E493FE30E5030206B47FFF02FD
:1005AE0006B47FFF0206B4900000E0FE53061F7DE6
:1005BE0000BE0205BD0002800302068C900003E01F
:1005CE00FD7E00900002E0FC7B004206EB4205EE51
:1005DE004D6003020688900005E0FD7E0090000449
:1005EE00E0FC7B004206EB4205BE0106BD000302A5
:1005FE00067CBE0205BD00028060BE0305BD000282
:10060E008044BE0405BD00028028BE8105BD0002E7
:10061E008052BE8205BD00028036BE8305BD00023B
:10062E00801ABE8451BD004E74BF55DE4403F5DE04
:10063E008074747F55DE440CF5DE806A74BF55D627
:10064E004403F5D68060747F55D6440CF5D680569B
:10065E0074BF55D44403F5D4804C747F55D4440CE8
:10066E00F5D4804274BF55D24403F5D28038747FDE
:10067E0055D2440CF5D27FFF802C7FFF80287FFF60
:10068E008024900000E4F0900001F0AD10AE11C394
:10069E00ED9402EE940040047F02800AAF108006B3
:1006AE007FFF80027FFFBFFF077512FF75DCCF2231
:1006BE00EF24F740068FDD75DCC02275DD0075DC9A
:1006CE00C0227405B51202805F7406B51268AE10B2
:1006DE00AF11C3EE9408EF940040067C087D0080B5
:1006EE0004AC10AD117D00C3ED9C50198D027B0042
:1006FE00ED2514F582E43515F583E493F98A828BA2
:10070E0083F00D80E28C037D00EEC39BFEEF9DFF18
:10071E008E108F11EC2514F514E43515F5158CDDBE
:10072E00AEDC6306408EDC22E5E35480FFE5104F1D
:10073E00F5E375DC022275DD0075DC022275DD0045
:10074E0043DC022220D9030207F7E5D9540FFFAD8F
:10075E00D95305307E00BD0005BE0002801BBD10C2
:10076E0005BE00028035BD2005BE00028042BD30B0
:10077E0005BE000280590207F5EF24FB5003020765
:10078E00F5EF2F900795738008800B805A80588064
:10079E005612074B80511200E4804CEF24FB404769
:1007AE00EF2F9007B473803F803D803B80398037B8
:1007BE00EF24FB4032EF2F9007C9738008800B8027
:1007CE0026802480221206D0801D1200D38018EFBE
:1007DE0024FB4013EF2F9007E873800880098007F1
:1007EE00800580031202BEC2D930D80F75DC0275A7
:1007FE00D21275E300C2DAC2D9C2D810DA0122E5EC
:10080E00DA20E20375D8FF2275E20053E27F43E25D
:10081E002975E30053E2BF53D1FB75D18043D1015B
:10082E002243E10443E10243E10143D81FD2EAD25D
:10083E00AF227E0A7F008EEE8FEF75D2127E007F82
:0C084E00008EEC8FED75EAC075DC022214
:10085A001200C09001F4E4F5F0020AD5900064E4B5
:10086A00F5F0120AD57582C112014F90000AE4F51B
:0A087A00F0120AD57582C102020DCA
:10088400C021C0E0C0F0C082C083C007C006C0055C
:10089400C004C003C002C001C000C0D075D00012A3
:1008A4000752D0D0D000D001D002D003D004D0055C
:1008B400D006D007D083D082D0F0D0E0D02132C08F
:1008C40021C0E0C0F0C082C083C007C006C005C01C
:1008D40004C003C002C001C000C0D075D00030986D
:1008E40005120C41C298309905120C77C299D0D0E8
:1008F400D000D001D002D003D004D005D006D00758
:10090400D083D082D0F0D0E0D02132C021C0E0C06A
:10091400F0C082C083C007C006C005C004C003C0C5
:1009240002C001C000C0D075D0009000C0E0FEA39A
:10093400E0FFC007C0068E828F83120049D006D024
:1009440007D0D0D000D001D002D003D004D005D03D
:1009540006D007D083D082D0F0D0E0D02132C0219D
:10096400C0E0C0F0C082C083C007C006C005C00498
:10097400C003C002C001C000C0D075D0009000C246
:10098400E0FEA3E0FFC007C0068E828F83120049F9
:10099400D006D007D0D0D000D001D002D003D004EC
:1009A400D005D006D007D083D082D0F0D0E0D021BB
:1009B40032C021C0E0C0F0C082C083C007C006C0FE
:1009C40005C004C003C002C001C000C0D075D0007F
:1009D4009000BEE0FEA3E04E600E9000BEE0F8A3DF
:1009E400E0F5838882120049D0D0D000D001D00233
:1009F400D003D004D005D006D007D083D082D0F065
:100A0400D0E0D02132120B9E12085A12086680FBE5
:040A140075820022C5
:100A1800C0D075D00808B8000D09B900090ABA0095
:100A2800050BBB00010CD0D032A2AFC2AFA808A9F9
:100A380009AA0AAB0BAC8A8588F092AF30F512741C
:100A4800012C600D08B8000909B900050ABA0001AF
:100A58000BC3EC9406FCECC313FC75F07DE8A4F81A
:100A6800ADF075F07DE9A42DF9E435F0FD75F07D64
:100A7800EAA42DFAE435F0FD75F07DEBA42DFB7D9D
:100A880000EC28F582E93DF583EA3DF5F0EB3D22DF
:100A9800A2AFC2AFA808A909AA0AAB0BAC0C92AFC7
:100AA80075F020E8A4A8F075F020E9A428F582A83C
:100AB800F075F020EAA428F583A8F075F020EBA4DF
:100AC80028F9A8F075F020ECA42889F02285822264
:100AD80085832385F024F525120A318582268583AE
:100AE8002785F028F529E522452345244525700169
:100AF80022A822A923AA24AB2585262A85272B8567
:100B0800282C85292DE8494A4B60DBC003C002C068
:100B180001C000120A31AC82AD83AEF0FFD000D024
:100B280001D002D003ECC3952AFCED952BFDEE9580
:100B38002CFEEF952DFFC3EC94E8ED9403EE9400A2
:100B4800EF940040A118B8FF0919B9FF051ABAFFB8
:100B5800011B882289238A248B2574E8252AF52AF3
:100B68007403352BF52BE4352CF52CE4352DF52DB8
:100B7800852A26852B27852C28852D298087AE82D6
:100B8800AF83EE4F600F05A105A105A105A11EBE0B
:100B9800FF011F80ED2275A15575A1AA74F855B9FA
:100BA8004406F5B975A100901388120B86759E5DF1
:100BB800759D0074F055894402F58953C9EF758C09
:0A0BC80006C28DD2A9D28CD2AF2252
:100BD20022AF82BF02005036EF75F002A424C0F5A6
:100BE20082740035F0F583E519F0E51AA3F0BF0031
:100BF200028005BF0118800B900094E024FF9288C8
:100C0200D2A822900094E0FF24FF928AD2AA22AFB7
:100C120082BF02005028BF00028005BF0108800485
:100C2200C2A88002C2AAEF75F002A424C0FE74001A
:0F0C320035F0FF8E828F8374D2F0740BA3F02203
:100C41009000C4E0FF7E008F828E83A37519108E01
:100C51001A120D08AE829000C5E0FFEEB507012221
:100C61009000C4E02495F582E43400F583E599F021
:100C71009000C4EEF0223000409000C6E0FF9000EA
:100C8100C7E0FEEFB50605A200C200229000C7E052
:100C910024A5F582E43400F583E0F5999000C7E0DE
:100CA100FF7E008F828E83A37519108E1A120D0894
:0A0CB100AE82AF839000C7EEF02280
:100CBB00E519451A60467A01E51925E0F519E51A9B
:100CCB00334012F51AE5829519E583951A40030A0C
:100CDB0080E6C3E51A13F51AE51913F519C3E58276
:100CEB009519F5F0E583951A4005F58385F082C3D8
:100CFB00E51A13F51AE51913F519DAE122C2D5E550
:100D0B008330E70DD2D5E4C39582F582E49583F564
:100D1B0083E51A30E70BE4C39519F519E4951AF539
:100D2B001A120CBB30D50BE4C39582F582E4958384
:030D3B00F583221B
:100D3E0000000000000000002A2B28000000000028
:100D4E000000000000000000000000000000000095
:100D5E002C9EB4A0A1A2A434A6A7A5AE362D3738DA
:100D6E00271E1F20212223242526B333B62EB7B8E3
:100D7E009F8485868788898A8B8C8D8E8F909192A1
:100D8E00939495969798999A9B9C9D2F3130A3ADED
:100D9E00350405060708090A0B0C0D0E0F1011126B
:100DAE00131415161718191A1B1C1DAFB1B0B50068
:100DBE00120110010000000809125DC500010102B8
:100DCE0003011200090229000101008064090400D8
:100DDE000002030101000921100121012243000735
:100DEE0005010308000A0705810308000A430005F0
:100DFE00010906A101050719E029E715002501954E
:100E0E00087501810295017508810395067508150F
:100E1E000025FF0507190029E7810005081901299A
:100E2E000515002501950575019102950175039132
:100E3E0003C02900040309040400140343004800FE
:100E4E0035003500780020006B006200640014004D
:100E5E001603430048003500350078006400750025
:100E6E0069006E006F0016000E03440065007100ED
:080E7E0069006E0067000E0020
:090E860000000000000000000063
:020E8F00000061
:040E9100D20BD20BA3
:040E95000000000059
:00000001FF
